:020000040000FA
:020000000328D3
:040002000034003492
:0A00060007309F000313831600303B
:10001000860083128601213086001A202230860055
:100020003A20000000000C3086001A2014308600B0
:100030003A200B2800000000000000000000000033
:100040000000000023202E30B300B30B25286530BC
:10005000B000000000000000000000005930B100B6
:1000600000005B30B200B20B3328B10B3028B00B6C
:100070002928080000000000000000000000000027
:1000800041201330B300B30B43286C30B0000000A4
:1000900000000000000000003C30B10000001830FB
:1000A000B200B20B5128B10B4E28B00B4728080004
:02400E00193F58
:00000001FF
